:100000000C94D6050C94FE050C94FE050C94FE058C
:100010000C94FE050C94FE050C94FE050C94FE0554
:100020000C94FE050C94FE050C94FE050C94FE0544
:100030000C94FE050C94FE050C94FE050C94FE0534
:100040000C94A21A0C94FE050C94121B0C94EC1A3E
:100050000C94FE050C94FE050C94FE050C94FE0514
:100060000C94441B0C94FE0505A84CCDB2D44EB99B
:100070003836A9020C50B9918688083CA6AAAA2A4B
:10008000BE000000803F00000000003E5B4F5B3E72
:100090003E6B4F6B3E1C3E7C3E1C183C7E3C181C4D
:1000A000577D571C1C5E7F5E1C00183C1800FFE744
:1000B000C3E7FF0018241800FFE7DBE7FF30483AEA
:1000C000060E2629792926407F050507407F05254C
:1000D0003F5A3CE73C5A7F3E1C1C08081C1C3E7FD4
:1000E00014227F22145F5F005F5F06097F017F009B
:1000F0006689956A606060606094A2FFA2940804BB
:100100007E040810207E201008082A1C08081C2ADB
:1001100008081E101010100C1E0C1E0C30383E3833
:1001200030060E3E0E06000000000000005F0000DA
:100130000007000700147F147F14242A7F2A12234B
:100140001308646236495620500008070300001C5B
:100150002241000041221C002A1C7F1C2A08083E64
:100160000808008070300008080808080000606077
:100170000020100804023E5149453E00427F4000E5
:1001800072494949462141494D331814127F1027BD
:10019000454545393C4A494931412111090736490C
:1001A000494936464949291E0000140000004034E0
:1001B00000000008142241141414141400412214E5
:1001C0000802015909063E415D594E7C1211127C0C
:1001D0007F494949363E414141227F4141413E7F6D
:1001E000494949417F090909013E414151737F084D
:1001F00008087F00417F41002040413F017F0814F3
:1002000022417F404040407F021C027F7F04081053
:100210007F3E4141413E7F090909063E4151215E31
:100220007F09192946264949493203017F01033FC5
:100230004040403F1F2040201F3F4038403F631454
:1002400008146303047804036159494D43007F4156
:1002500041410204081020004141417F0402010293
:1002600004404040404000030708002054547840B8
:100270007F284444383844444428384444287F384C
:100280005454541800087E090218A4A49C787F08CE
:1002900004047800447D40002040403D007F102849
:1002A000440000417F40007C047804787C0804040A
:1002B000783844444438FC1824241818242418FCA2
:1002C0007C08040408485454542404043F44243C47
:1002D0004040207C1C2040201C3C4030403C4428B6
:1002E0001028444C9090907C4464544C4400083650
:1002F00041000000770000004136080002010204BE
:10030000023C2623263C1EA1A161123A4040207ADD
:100310003854545559215555794122545478422125
:100320005554784020545579400C1E52721239555C
:100330005555593954545459395554545800004559
:100340007C410002457D420001457C407D12111236
:100350007DF0282528F07C545545002054547C54C9
:100360007C0A097F4932494949323A4444443A3285
:100370004A4848303A4141217A3A42402078009D2B
:10038000A0A07D3D4242423D3D4040403D3C24FFD7
:100390002424487E4943662B2FFC2F2BFF0929F686
:1003A00020C0887E090320545479410000447D41D7
:1003B0003048484A32384040227A007A0A0A727D30
:1003C0000D19317D2629292F28262929292630484B
:1003D0004D4020380808080808080808382F10C8B9
:1003E000ACBA2F102834FA00007B000008142A143D
:1003F0002222142A14085500550055AA55AA55AAB8
:10040000FF55FF55FF000000FF00101010FF001403
:100410001414FF001010FF00FF1010F010F014145F
:1004200014FC001414F700FF0000FF00FF1414F484
:1004300004FC141417101F10101F101F1414141F85
:1004400000101010F0000000001F101010101F10FE
:10045000101010F010000000FF10101010101010FD
:100460001010FF10000000FF140000FF00FF00004C
:100470001F10170000FC04F414141710171414F4C0
:1004800004F40000FF00F714141414141414F700FB
:10049000F7141414171410101F101F141414F4144C
:1004A0001010F010F000001F101F0000001F1400BB
:1004B0000000FC140000F010F01010FF10FF1414E6
:1004C00014FF141010101F00000000F010FFFFFFB9
:1004D000FFFFF0F0F0F0F0FFFFFF0000000000FF72
:1004E000FF0F0F0F0F0F3844443844FC4A4A4A3478
:1004F0007E02020606027E027E026355494163388F
:1005000044443C04407E201E2006027E020299A53F
:10051000E7A5991C2A492A1C4C7201724C304A4D9D
:100520004D303048784830BC625A463D3E494949D2
:10053000007E0101017E2A2A2A2A2A44445F44447B
:1005400040514A444040444A51400000FF0103E00A
:1005500080FF000008086B6B083612362436060F41
:10056000090F06000018180000001010003040FFAE
:100570000101001F01011E00191D1712003C3C3C27
:100580003C0000000000000103070F1F3F7F0080B8
:10059000C0E0F0F8FCFEDB40A4A62EAF2000A1C80E
:1005A000D300408DAED580A80000600000000000A0
:1005B000000000000000000000E00000000000005B
:1005C0000000000000000001E0000000000000004A
:1005D00000000000000001F000000000000000002A
:1005E000000000000003F000000000000000000018
:1005F0000000000007F00000000000000000000004
:1006000000000007F80000000000000000000000EB
:1006100000000FF800000003C0007E000001E000B1
:100620007F0FF800000003C000FE000001E000FFA3
:10063000EFF800000003C000FE000001E000FFFF33
:10064000F800000003C000F00000000F007FFE7FF4
:10065000C0000003C000F00000000F003FFE7FF864
:100660003FF1FBCFFCFEF3BC3DEFE01FFE7FFF7FC1
:10067000FBFFDFFEFEFFBC3DEFE01FC6FFFF7FFB81
:10068000FFDFFEFEFFBC3DEFE00FE3C7FE787BC35C
:10069000DE1EF0FFBC3DEF0007FF87FC787BC3DE6A
:1006A0001EF0F83C3DEF0001FFFFF0007BC3C01ED1
:1006B000F0F03C3DEF0001F37FE03FFBC3CFFEF0E5
:1006C000F03C3DEF0003E33F807FFBC3DFFEF0F033
:1006D0003C3DEF0007E73C00787BC3DE1EF0F03CBA
:1006E0003DEF0007FFBE00787BC3DE1EF0F03C3D0F
:1006F000EF0007FFFE00787BC3DE1EF0F03C3DEF0D
:10070000000FFFFE007FFBFFDFFEF0F03FFDEFE09C
:100710000FFFFF007FFBFFDFFEF0F03FFDEFE00F7C
:10072000F9FF003E79F9CF9EF0F01F3DE7E01FF1A1
:10073000FF0000000000000000000000001F80FF1C
:10074000007FFFFFFFFFFFFFFFFFFFE01C007F00B8
:100750007FFFFFFFFEB46D888D18E000001F007F53
:10076000FFFFFFFE95AD7DB577E000000F007FFF36
:10077000FFFFFEA5AD9D8D19E0000006007FFFFF85
:10078000FFFEB5ADEDB57EE0000000000001800089
:1007900000000000000000000380000000000000D6
:1007A00000000007C000000000000000000007C0BB
:1007B0000000000000000000000FC000000000006A
:1007C000000000001FE00000000000000000001F0B
:1007D000E00000000000000000003FE0000000001A
:1007E00000000000003FF0000000000000000000DA
:1007F0007FF0000000000000001FF87FF000000004
:10080000000000003FFE7FF0000000000000003FFD
:10081000FF7FF0000000000000001FFFFBE0000071
:1008200000000000000FFFF9FFC000000000000002
:100830000FFFF9FFF800000000000007FFF1FFFFC5
:1008400000000000000003FC73FFFF8000000000B8
:100850000001FE3FFFFF80000000000000FF1E0FB0
:10086000FF000000000000007FFE1FFC00000000F1
:100870000000003FFFFFF8000000000000000FDF55
:10088000FFE0000000000000001F19FFC000000092
:10089000000000003F3CFF00000000000000007E60
:1008A0007CF800000000000000007FFE7C000000DB
:1008B0000000000000FFFFFC00000000000000003E
:1008C000FFFFFE0000000000000000FFFFFE000030
:1008D000000000000001FFEFFE000000000000002B
:1008E00001FFCFFE0000000000000003FF07FE0034
:1008F00000000000000003FC07FE000000000000F4
:100900000003F003FE00000000000000018000FE74
:10091000000000000000000000007E000000000059
:1009200000000000003E0000000000000000000089
:100930000C000000000000078000FC000003C00065
:100940000000078001FC000003C0000000078001D8
:10095000FC000003C0000000078001E00000001E52
:10096000000000078001E00000001E007FE3F79F09
:10097000F9FDE7787BDFC0FFF7FFBFFDFDFF787B68
:10098000DFC0FFF7FFBFFDFDFF787BDFC0F0F7871B
:10099000BC3DE1FF787BDE00F0F787BC3DE1F078FD
:1009A0007BDE0000F787803DE1E0787BDE007FF7AB
:1009B000879FFDE1E0787BDE00FFF787BFFDE1E088
:1009C000787BDE00F0F787BC3DE1E0787BDE00F06D
:1009D000F787BC3DE1E0787BDE00F0F787BC3DE1C6
:1009E000E0787BDE00FFF7FFBFFDE1E07FFBDFC0CB
:1009F000FFF7FFBFFDE1E07FFBDFC07CF3F39F3D2E
:100A0000E1E03E7BCFC000000000000000000000DD
:100A100000FFFFFFFFFFFFFFFFFFFFC0FFFFFFFF24
:100A2000FD68DB111A31C0FFFFFFFFFD2B5AFB6A87
:100A3000EFC0FFFFFFFFFD4B5B3B1A33C0FFFFFF23
:100A4000FFFD6B5BDB6AFDC053534431333036200E
:100A5000616C6C6F636174696F6E206661696C654F
:100A60006400000000001E0001E00F8007C003E0EA
:100A70001F0000E01C0000F87C00003FF000003F79
:100A8000F00000FFFC0000FFFC0001FFFE0001FF82
:100A9000FE003FFFFFF07FFFFFF87FFFFFF807C773
:100AA000FF8007C7FF8003C78F0003FFFF0003FF1E
:100AB000FF0000FFFC0000FFFC0000FFFC0000FF47
:100AC000FC00003FF000003B7000003FF000001F02
:100AD000E000001FE00000000000000000001E0019
:100AE00001E00F8007C003E01F0000E01C0000F8D9
:100AF0007C00003FF000003FF00000FFFC0000FF22
:100B0000FC0001FFFE0001FFFE003FFFFFF07FFF42
:100B1000FFF87FFFFFF807C78F8007C78F8003C7E5
:100B20008F0003FFFF0003FFFF0000FFFC0000FF3A
:100B3000FC0000FFFC0000FFFC00003FF000003B59
:100B40007000003FF000001FE000001FE000000008
:100B5000000000000008000201000003040700007C
:100B600000000000000000000000250028002B000D
:100B700000000000240027002A00040404040404E8
:100B8000040402020202020203030303030301023C
:100B9000040810204080010204081020010204080B
:100BA00010202200FF210000631CBB2411241FBE63
:100BB000CFEFD8E0DEBFCDBF11E0A0E0B1E0E8EDBF
:100BC000F3E502C005900D92A43EB107D9F723E0EA
:100BD000A4EEB1E001C01D92A53CB207E1F715E01B
:100BE000C5EDD5E004C02197FE010E949628C43DC2
:100BF000D107C9F70E94E61C0C94DF290C94000071
:100C000090E0FC01E257F44F24918658944FFC0188
:100C10008491882399F090E0880F991FFC01E05996
:100C2000F44FA591B491FC01EA59F44F8591949148
:100C30008FB7F894EC91E22BEC938FBF0895089551
:100C4000FC01538D448D252F30E0842F90E0821BD2
:100C5000930B541710F0CF96089501970895FC0157
:100C6000918D828D981761F0A28DAE0FBF2FB11DAF
:100C70005D968C91928D9F5F9F73928F90E0089507
:100C80008FEF9FEF0895FC01918D828D981731F0C1
:100C9000828DE80FF11D858D90E008958FEF9FEF15
:100CA0000895FC01918D228D892F90E0805C9F4FEB
:100CB000821B91098F7399270895FC01A48DA80FB9
:100CC000B92FB11DA35ABF4F2C91848D90E001968E
:100CD0008F739927848FA689B7892C93A089B189AE
:100CE0008C91837080648C93938D848D981306C04F
:100CF0000288F389E02D80818F7D80830895EF92B3
:100D0000FF920F931F93CF93DF93EC0181E0888FC5
:100D10009B8D8C8D98131AC0E889F989808185FF95
:100D200015C09FB7F894EE89FF896083E889F98937
:100D300080818370806480839FBF81E090E0DF9139
:100D4000CF911F910F91FF90EF900895F62E0B8D8C
:100D500010E00F5F1F4F0F731127E02E8C8D8E1147
:100D60000CC00FB607FCFACFE889F989808185FFAE
:100D7000F5CFCE010E945D06F1CFEB8DEC0FFD2F7C
:100D8000F11DE35AFF4FF0829FB7F8940B8FEA8969
:100D9000FB8980818062CFCFCF93DF93EC01888D78
:100DA0008823B9F0AA89BB89E889F9898C9185FDE6
:100DB00003C0808186FD0DC00FB607FCF7CF8C9174
:100DC00085FFF2CF808185FFEDCFCE010E945D06C9
:100DD000E9CFDF91CF91089588ED92E00E9451060E
:100DE00021E0892B09F420E0822F089580E090E033
:100DF000892B29F00E94EC0681110C9400000895C3
:100E000090E0FC01EE5AF44F2491FC01E257F44FBC
:100E10003491FC01E658F44FE491EE23C9F022230B
:100E200039F0233001F1A8F4213019F1223029F1F1
:100E3000F0E0EE0FFF1FEA59F44FA591B4918FB780
:100E4000F894EC91611126C030953E233C938FBFFE
:100E500008952730A9F02830C9F0243049F780914F
:100E600080008F7D03C0809180008F778093800009
:100E7000DFCF84B58F7784BDDBCF84B58F7DFBCF8B
:100E80008091B0008F778093B000D2CF8091B00076
:100E90008F7DF9CF3E2BDACF3FB7F8948091D00207
:100EA0009091D102A091D202B091D30226B5A89B15
:100EB00005C02F3F19F00196A11DB11D3FBFBA2FEC
:100EC000A92F982F8827BC01CD01620F711D811DAC
:100ED000911D42E0660F771F881F991F4A95D1F731
:100EE00008958F929F92AF92BF92CF92DF92EF922E
:100EF000FF924B015C010E944C076B017C010E9438
:100F00004C076C197D098E099F09683E7340810565
:100F10009105A8F321E0821A9108A108B10888EE92
:100F2000C80E83E0D81EE11CF11C81149104A104B9
:100F3000B10429F7FF90EF90DF90CF90BF90AF9072
:100F40009F908F90089508950895AF92BF92CF9289
:100F5000DF92EF92FF920F931F93CF93DF936C0179
:100F60007B018B01040F151FEB015E01AE18BF085A
:100F7000C017D10759F06991D601ED91FC9101900C
:100F8000F081E02DC6010995892B79F7C501DF9124
:100F9000CF911F910F91FF90EF90DF90CF90BF9076
:100FA000AF900895EF92FF920F931F93CF93DF932B
:100FB000EC01EC80FD806E157F050CF070C057FFD2
:100FC00004C0240F351F50E040E08E819F81FA015C
:100FD000E20FF31F8E179F071CF49C01241B350B97
:100FE000121613060CF05BC0922F842F86958695FF
:100FF00086958E9DD0018F9DB00D11246A0F7B1FA9
:10100000AF8DB8A1A60FB71F477049F188E0841BC8
:10101000482F682F70E0FB01E257FA4FE491281740
:1010200008F063C0621B71092FEF30E002C03595F4
:1010300027956A95E2F7E2230130110539F0B0F106
:101040000230110561F58C91E82702C08C91E82BE4
:10105000EC93941720F12C813D81A20FB31FE92F4F
:10106000E41BE83078F00230110521F58E2F9C91B9
:1010700090959C932C813D81A20FB31F885088309E
:10108000B0F7E770EE2359F0F0E0EA57FA4FE49139
:1010900001301105F9F010F10230110519F1DF915D
:1010A000CF911F910F91FF90EF900895E0958C9153
:1010B000E823CECF81E00115110509F480E0819588
:1010C0009E2F8C932C813D81A20FB31F9850983096
:1010D000C0F7D7CF8C91E82BEC93E1CFE0958C91C2
:1010E000E823FACF8C91E827F7CF0130110509F4F6
:1010F000ADCFE0F20230110509F4A5CFAE0DBF1D52
:10110000AECF0F931F93CF93DF9377FF04C0260FCB
:10111000371F70E060E0DC011496CD91DC91FB019B
:10112000E20FF31FCE17DF071CF49E01261B370BBF
:10113000121613064CF5FA0157FD3796A3E0F59504
:10114000E795AA95E1F7EC9FD001ED9FB00DFC9FCC
:10115000B00D11246A0F7B1FDC015F96ED91FC91AD
:10116000E60FF71F4770552781E090E001C0880F18
:101170004A95EAF7482F0130110559F0A8F02E0FD3
:101180003F1F02301105E1F0DF91CF911F910F91C8
:1011900008952E0F3F1FE217F307B1F38191DF018E
:1011A0001197842B8C93F7CF80952E0F3F1FE2175A
:1011B000F30751F39191DF01119798239C93F7CF97
:1011C000E217F30709F38191DF01119784278C93CC
:1011D000F7CF0F931F93FA01DC0156964C91569767
:1011E0004230E9F04330A1F1413061F514964D9160
:1011F0005C91DA01AE1BBF0BFD01E21BF30B77FD27
:101200000BC0DC0116964D915C916417750724F4B0
:10121000AB01BF010E9481081F910F9108951496A0
:101220004D915C91DA01A61BB70BBD0161507109AC
:10123000DC0116964D915C91DA01AE1BBF0BFD01EE
:10124000E21BF30B77FDE8CFAF010E94D207E4CF9A
:1012500016964D915C91DA01A61BB70BBD0161504A
:101260007109CDCF0F931F93FA01DC0156964C9173
:1012700056974230A9F0433091F1413019F5149658
:101280004D915C91DA01AE1BBF0BFD013197F7FD6B
:1012900004C0AB01BF010E94D2071F910F910895B6
:1012A00014964D915C91DA01A61BB70BBD01DC01D0
:1012B00016964D915C91DA01AE1BBF0BFD01319783
:1012C000621B730BF7FDE9CFDC0116964D915C9123
:1012D000E417F50714F7AF010E948108DECF1696D8
:1012E0004D915C91DA01A61BB70BBD01621B730B1C
:1012F000CECFFC0177FD64C08085918568177907A2
:101300000CF05EC057FD5CC0828593854817590775
:101310000CF056C086898230B1F0833029F18130DB
:1013200041F484819581841B950BAB01BC01615014
:1013300071092130310509F108F443C0223031052B
:1013400009F463C0089584819581DC01A61BB70B65
:10135000BD016150710986819781DC01A41BB50B29
:10136000AD0141505109E5CF86819781861B970BCE
:10137000BA01AC0141505109DCCFCA0157FD0796B3
:10138000A3E095958795AA95E1F7A481B5818A9FF9
:1013900090018B9F300D9A9F300D1124620F731FA7
:1013A000078CF0A1E02DE60FF71F4770552721E0CD
:1013B00030E001C0220F4A95EAF78081822B8083BA
:1013C0000895CA0157FD079633E0959587953A959C
:1013D000E1F7A481B5818A9F90018B9F300D9A9F80
:1013E000300D1124620F731F078CF0A1E02DE60F62
:1013F000F71F4770552781E090E001C0880F4A959C
:10140000EAF7809590818923DACFCA0157FD0796C4
:1014100023E0959587952A95E1F7A481B5818A9F68
:1014200090018B9F300D9A9F300D1124620F731F16
:10143000078CF0A1E02DE60FF71F4770552721E03C
:1014400030E001C0220F4A95EAF780818227B7CFAA
:1014500008958EBD00000DB407FEFDCF8EB5089532
:101460008CBD9DBD08950895FC016370668B8481D9
:10147000958126813781613039F0633029F0918779
:1014800080873387228708953187208793878287D3
:1014900008952F923F924F925F926F927F928F9218
:1014A0009F92AF92BF92CF92DF92EF92FF920F93F3
:1014B0001F93CF93DF93CDB7DEB76A970FB6F8943B
:1014C000DEBF0FBECDBF9A8F898F7A8369834A01B1
:1014D000D22E18870F833701BC2CDC0159962D9131
:1014E0003C915A972115310509F015C118968D9137
:1014F0009C911997681779070CF0D7C11A968D91AE
:101500009C91481759070CF0D0C14C2C512CB6E0D7
:10151000CB9E600D711D11247C876B8716161706F4
:101520000CF0C3C1EA2DF0E0FA87E98793E0EE0FF3
:10153000FF1F9A95E1F7F88BEF87CF01840F951F76
:10154000181619060CF0B1C1A98DBA8D58968C9158
:10155000811104C0BFEABD1508F4D394A98DBA8DDA
:10156000ED91FC9111970284F385E02DCD01099551
:10157000B5E0DB9EC0011124E981FA81FC83EB8395
:10158000312C212C9C012A573F4F388F2F8B4A2D0D
:1015900050E05E8B4D8BEF89F88DE20DF31D449189
:1015A0009E828D82D12CC12C69817A81620D731D3E
:1015B0007A8B698B842F90E09C8B8B8BE98DFA8DD5
:1015C000A081B18140FF82C0F1E0BF126FC0AF12B5
:1015D0006DC01C96ED91FC912F813885A4014C0DB6
:1015E0005D1D69897A89898D9A8D0995EB89FC89B8
:1015F000F595E7954E2F5FEFC51AD50A6D817E816F
:101600008D899E89680F791F7E836D8398E0C91646
:10161000D10481F6AFEF2A1A3A0AEB81FC81E40D7E
:10162000F51DFC83EB83F5E02F16310409F0B3CFF1
:101630002F81388526153705B9F0A98DBA8DED9122
:10164000FC91B1E0BB1257C0AB1255C069817A81E1
:101650006B5F7F4F0088F189E02D830128E030E047
:10166000A401898D9A8D0995A98DBA8DED91FC9172
:1016700011970688F789E02DCD016A960FB6F89488
:10168000DEBF0FBECDBFDF91CF911F910F91FF90B5
:10169000EF90DF90CF90BF90AF909F908F907F9012
:1016A0006F905F904F903F902F9009941E96ED9110
:1016B000FC91EF80F88409851A8592014D815E8145
:1016C0006B817C81898D9A8D099590CF2F8138858A
:1016D0002615370509F48ACF31E0B31207C0A312EB
:1016E00005C01C96ED91FC91930178CF1E96ED916B
:1016F000FC917301E0CF6B857C85641975090684C4
:10170000F785E02D73010F8518899201A401898D59
:101710009A8D0995A9CFF901349694913297459104
:101720005491D91AB7E0DB9E400D511D1124F901E7
:10173000259134913C8B2B8BFA0125903490FA0142
:101740003296749031963491398B329664903196FA
:10175000449041E04C1518F04A1508F07FC0662D02
:10176000062C000C770B7C836B83842D042C000CDF
:10177000990B9E838D83A98DBA8DED91FC91119764
:101780000284F385E02DCD010995512CD12CC12C7B
:10179000EA2DF0E0FA87E9872B2D30E03C872B8794
:1017A000A401440D511D47FC5A95588F4F8B6981F8
:1017B0007A81660D711D67FC7A957E876D877989C0
:1017C000C71608F051CF2C2D30E04D815E81420FBD
:1017D000531FA985BA854A9FC0014B9F900D5A9F00
:1017E000900D1124FC01E80DF91DF88BEF87852D74
:1017F000612C4F89588D420F531F5E8B4D8B6714A0
:1018000008F050C044244394480E877041F4C1014D
:101810000196EB89FC89E20DF31DD4901C01D7FEE3
:1018200019C0A98DBA8DED91FC91662D70E0B1E0E3
:10183000BB1219C0AB1217C02D853E85620F731FF6
:101840000484F585E02D2F8138854D895E89898D49
:101850009A8D0995DD0C6394842DD1CF1E821D8253
:101860001C821B8288CF4B815C81640F751FAB8506
:10187000BC856A9FC0016B9F900D7A9F900D1124CB
:1018800069817A81680F791F0684F785E02DEF80E2
:10189000F88409851A859D014F855889898D9A8D0F
:1018A0000995D8CF570CC3948ACF6A960FB6F8948F
:1018B000DEBF0FBECDBFDF91CF911F910F91FF9083
:1018C000EF90DF90CF90BF90AF909F908F907F90E0
:1018D0006F905F904F903F902F9008958F929F92BE
:1018E000AF92CF92EF92FF920F931F93CF93DF931C
:1018F000EC01262F898D9A8D009709F051C06A302E
:10190000D1F41D861C868D8948E0849F90011124A6
:101910008E859F85820F931F9F878E8781E090E041
:10192000DF91CF911F910F91FF90EF90CF90AF90EB
:101930009F908F9008956D3089F3CC88AD888F8902
:101940008823C1F08C859D8536E0C39E800D911D56
:101950001124488559854817590764F44E855F85D9
:101960001D861C8638E0A39EC0011124840F951F9C
:101970009F878E87EA88FB88088919894E855F854D
:101980006C857D85CE010E94490A2C898C859D85B8
:1019900046E0249F800D911D11249D878C87BECF2A
:1019A0006A3069F41D861C86FC013896E4912D8905
:1019B0008E859F85E29F800D911D1124ADCF6D30E6
:1019C00009F4ACCFFC0134963491631708F4A6CF28
:1019D0003296E491E61708F4A1CFFC013296859087
:1019E0009490462F431B342F47E0349F800C911C6A
:1019F0001124F401329634913196E4913323A9F104
:101A0000EE2399F1CC88F4013596E491AD884F89A5
:101A1000442301F10E2E000CFF0BE30FF11DCE9EAF
:101A2000A001CF9E500D11246C857D85460F571F58
:101A300068857985641775076CF44E855F851D860A
:101A40001C86FC013896E491AE9E400D511D112478
:101A50005F874E87EA88FB88088919894E855F85EC
:101A60006C857D85CE010E94490AF4013496E4918B
:101A70002C898C859D85E29F800D911D11248DCF31
:101A80006F927F928F929F92AF92BF92CF92DF928E
:101A9000EF92FF920F931F93CF93DF93EC016B01B3
:101AA0005A0139014801E881F9810284F385E02D6A
:101AB0000995E881F9810288F389E02D8701930176
:101AC000A501B601CE010995A501480D591D41504A
:101AD0005109E881F9810288F389E02D9301B6016B
:101AE000CE010995E881F9810088F189E02D940102
:101AF000A501B601CE010995C60CD71CB6016150EF
:101B00007109E881F9810088F189E02D9401A5012E
:101B1000CE010995E881F9810688F789E02DCE018B
:101B2000DF91CF911F910F91FF90EF90DF90CF90B9
:101B3000BF90AF909F908F907F906F9009946F921D
:101B40007F928F929F92AF92BF92CF92DF92EF924D
:101B5000FF920F931F93CF93DF935C01EB016A0118
:101B6000490138018701DC01ED91FC91621773078F
:101B700019F5641675062CF0962D872D3A01C92E9D
:101B8000D82E9601261937092F5F3F4F048CF58D0B
:101B9000E02DA301BE01C5010995DF91CF911F91F1
:101BA0000F91FF90EF90DF90CF90BF90AF909F90FC
:101BB0008F907F906F9008954615570591F42617E2
:101BC000370724F0892D4B01C22FD82F9E012819E9
:101BD00039092F5F3F4F068CF78DE02DA601B40128
:101BE000DACF0284F385E02D0995D501ED91FC91C2
:101BF0000488F589E02D83019401A601BE01C50189
:101C00000995D501ED91FC910688F789E02DC50174
:101C1000DF91CF911F910F91FF90EF90DF90CF90C8
:101C2000BF90AF909F908F907F906F900994EF92AC
:101C3000FF920F931F93DC011A960D911C911B9735
:101C400018962D913C911997ED91FC9100A0F1A16E
:101C5000E02D7B0150E040E070E060E009951F91CD
:101C60000F91FF90EF9008954F925F926F927F9245
:101C70008F929F92AF92BF92CF92DF92EF92FF929C
:101C80000F931F93CF93DF936C012B015A013901FE
:101C90004801DC01ED91FC910284F385E02D09956A
:101CA000E201640C751CD601ED91FC91C615D705B7
:101CB0005CF40088F189E02D87019401A501BE0143
:101CC000C60109952196EFCF0688F789E02DC60158
:101CD000DF91CF911F910F91FF90EF90DF90CF9008
:101CE000BF90AF909F908F907F906F905F904F903C
:101CF00009948F929F92AF92BF92CF92DF92EF9210
:101D0000FF920F931F93CF93DF93EC015B014A0186
:101D10006901E881F9810284F385E02D0995950137
:101D20002C0D3D1D21503109E881F9810488F58988
:101D3000E02D78018401A401B501CE010995E88167
:101D4000F9810688F789E02DCE01DF91CF911F91AF
:101D50000F91FF90EF90DF90CF90BF90AF909F904A
:101D60008F9009948F929F92AF92BF92CF92DF9201
:101D7000EF92FF920F931F93CF93DF93EC015B01E0
:101D80004A0169017801E881F9810284F385E02D37
:101D90000995C80CD91C860101501109E881F98107
:101DA0000488F589E02D9501A401B501CE010995BE
:101DB000E881F9810688F789E02DCE01DF91CF9186
:101DC0001F910F91FF90EF90DF90CF90BF90AF9059
:101DD0009F908F900994EF92FF920F931F93DC01D5
:101DE000ED91FC9100A0F1A1E02D09951F910F91BB
:101DF000FF90EF9008950F931F93DC01ED91FC91FC
:101E0000068CF78DE02D09951F910F9108950F9382
:101E10001F93DC01ED91FC91048CF58DE02D09956B
:101E20001F910F910895DC01ED91FC910084F185E3
:101E3000E02D09943F924F925F926F927F928F9222
:101E40009F92AF92BF92CF92DF92EF92FF920F9349
:101E50001F93CF93DF9300D000D0CDB7DEB75C01E6
:101E60003B016A014901280187E0480E511C93E0BB
:101E7000559447949A95E1F7CA018E0D9F1D9A8358
:101E80008983F12CE12C312C1C821B828B819C815B
:101E900087709927330C892B61F4EB81FC8183E0F7
:101EA000F595E7958A95E1F7EE0DFF1DE80DF91D13
:101EB000349037FE0AC021E030E0A6016B817C81BE
:101EC000660D771DC5010E94130F8B819C810196C1
:101ED0009C838B8308171907C9F69FEFC91AD90A83
:101EE000E40CF51C89819A81C816D90669F60F9011
:101EF0000F900F900F90DF91CF911F910F91FF9056
:101F0000EF90DF90CF90BF90AF909F908F907F9099
:101F10006F905F904F903F9008952F923F924F9215
:101F20005F926F927F928F929F92AF92BF92CF9269
:101F3000DF92EF92FF920F931F93CF93DF9300D026
:101F400000D000D0CDB7DEB73C016A013E832D83BF
:101F5000FC82EB825801A41AB50AB7FE03C0B19403
:101F6000A194B1088D809E80861A970A97FE03C0BF
:101F70009194819491088A149B045CF0902F812F96
:101F80000D811E819D838E839C2D8D2D6B01692F6C
:101F9000782F0C151D055CF09D818E817E836D83ED
:101FA000692F782F902F812F8601C92ED82E1601E8
:101FB000201A310A2B012D813E81421A530A57FE05
:101FC00003C0519441945108710137FE03C03FEFA3
:101FD000E31AF30AF594E7948D819E81861797079B
:101FE0005CF5A1E0B0E0BA83A983C016D1064CF13C
:101FF000D301ED91FC910484F585E02D2B813C818A
:10200000A8016D817E818A149B041CF04D815E8144
:10201000B801C3010995E418F508F7FE0AC02D813F
:102020003E8189819A81280F391F3E832D83E20CDE
:10203000F31C0F5F1F4FD9CF2FEF3FEF3A83298358
:10204000D4CF26960FB6F894DEBF0FBECDBFDF917A
:10205000CF911F910F91FF90EF90DF90CF90BF90A5
:10206000AF909F908F907F906F905F904F903F9038
:102070002F900895089520914A02260F3327331F89
:1020800021323105ECF420916E02FC0190E080E0F9
:10209000243069F082E00895A0914A022191AC01B8
:1020A000465D5D4FA40FB52FB11D2C930196861789
:1020B00098F380914A02680F60934A0280E0089585
:1020C00081E0089510926E0281E080937002109278
:1020D0006F0261E082E10E94000761E083E10E94FB
:1020E0000007E9EBF0E080818E7F808380818D7F27
:1020F000808388E48093B80085E48093BC000895D1
:10210000CF93DF9391E0909329028823B9F0C09197
:10211000B800D091BA008091BC008A7B8093BC004B
:1021200060E082E10E94000760E083E10E94000716
:102130000E946210D093BA00C093B800DF91CF9193
:102140000895E091AC028091AB02E81730F4F0E022
:10215000EC5FFD4F808190E008958FEF9FEF089531
:102160009091AC028091AB022FEF3FEF981748F4AB
:10217000E92FF0E0EC5FFD4F208130E09F5F90930E
:10218000AC02C90108958091AB029091AC02891B09
:10219000990B0895CF92DF92EF92FF920F931F93C6
:1021A000CF93DF937C01CB018A012091D7022223B8
:1021B00089F0EB016B01C40ED51ECC15DD0569F06D
:1021C0006991D701ED91FC910190F081E02DC7015B
:1021D0000995F3CF642F0E943B10C801DF91CF9186
:1021E0001F910F91FF90EF90DF90CF900895CF93C4
:1021F000DF931F92CDB7DEB769832091D7022223E8
:10220000F9F02091D402203258F021E030E0FC01B6
:102210003383228390E080E00F90DF91CF91089587
:102220008091D502E82FF0E0EC51FE4F9981908328
:102230008F5F8093D5028093D40281E090E0ECCF51
:1022400061E0CE0101960E943B10F7CFCF92DF9262
:10225000EF92FF920F931F93CF93DF93D091D4020D
:1022600081E0D13208F09CC0C091D6020E944C0798
:102270006B017C0180916E0281116CC082E08093C1
:102280006E0281E0809370028FEF80936D02109256
:102290009202D0939102A4EEB1E0E1E7F2E080E097
:1022A000D8138DC01092930280919302CC0FC82B4B
:1022B000C093930280916F02813009F084C0109224
:1022C0006F020E944C076B017C0180919302809306
:1022D000BB008091250290912602A0912702B09127
:1022E0002802892B8A2B8B2BA1F00E944C0700918E
:1022F00025021091260220912702309128026C19A4
:102300007D098E099F09061717072807390708F462
:1023100042C08091BC0083FDD8CF85EC8093BC0087
:102320000E944C076B017C0180916E02823009F49F
:102330004CC080916D028F3F09F469C080916D029D
:10234000803209F466C080916D02803309F463C065
:1023500084E026C08091250290912602A091270258
:10236000B0912802892B8A2B8B2B09F483CF0E94F2
:102370004C070091250210912602209127023091EE
:1023800028026C197D098E099F090617170728076F
:10239000390708F06FCF809124020E94801085E0F9
:1023A0001092D5021092D4021092D702DF91CF91F1
:1023B0001F910F91FF90EF90DF90CF9008959D9126
:1023C00091938F5F6DCF85EEA9CF8091250290917B
:1023D0002602A0912702B0912802892B8A2B8B2BF1
:1023E00009F4A2CF0E944C07009125021091260209
:1023F00020912702309128026C197D098E099F09CE
:10240000061717072807390708F08ECFC4CF80E0DA
:10241000C7CF82E0C5CF83E0C3CFEF92FF920F9387
:102420001F93CF93DF937C01C62F80919E039091E1
:102430009F03009709F459C02091A20331E0309323
:10244000D7022093D6021092D5021092D402DC015A
:10245000ED91FC910190F081E02D60E009958701FC
:10246000EE24E394F12CD1E0C15080919E03909131
:102470009F03CF3F91F1B0E2EB16F104D8F00E9438
:10248000261180919E0390919F032091A203D093E7
:10249000D7022093D6021092D5021092D402DC010A
:1024A000ED91FC910190F081E02D60E00995EE2422
:1024B000E394F12C80919E0390919F03F801649125
:1024C000DC01ED91FC910190F081E02D0995BFEFC9
:1024D000EB1AFB0A0F5F1F4FC7CFDF91CF911F9100
:1024E0000F91FF90EF900C942611E091AE03F091C4
:1024F000AF0390818091B403809589238083870105
:10250000C15008F438C0F801849120919C033091A7
:102510009D03232B29F00E94290A0F5F1F4FF0CF44
:1025200028E030E040E8E091AA03F091AB039091FD
:10253000B203582F5423D9F05081952B9083E0910A
:10254000AC03F091AD0390815091B303952B908330
:10255000E091AC03F091AD0350819091B30390955D
:1025600095239083469521503109E9F6D6CF5081C5
:1025700090959523E3CFDF91CF911F910F91FF901D
:10258000EF9008951F93CF93DF93EC018D8D9E8D77
:10259000009721F1162F29A131E03093D702209323
:1025A000D6021092D5021092D402DC01ED91FC917A
:1025B0000190F081E02D60E009958D8D9E8DDC010C
:1025C000ED91FC910190F081E02D612F09958D8DA9
:1025D0009E8DDF91CF911F910C942611ADA5BEA5C4
:1025E0009C918BA9809589238C938B8D9C8D892BB5
:1025F00031F0862FDF91CF911F910C94290A28E0AA
:1026000030E080E8A9A5BAA599A9462F4823C1F0D2
:102610004C91942B9C93ABA5BCA59C914AA9942B5F
:102620009C93ABA5BCA54C919AA9909594239C939F
:1026300086952150310931F7DF91CF911F9108958F
:102640004C9190959423E6CFDF92EF92FF920F93F7
:102650001F93CF93DF9380919E0390919F03892BCB
:1026600009F498C02091B6033091B7034091B803A4
:102670005091B90360E074E284EF90E00E946B280F
:1026800020513109410951095695479537952795AC
:102690002093B80065E082EA9BE00E940D126091F1
:1026A0008503615081E893E00E94C2122091870364
:1026B00030918803C901079697FD079633E09595F9
:1026C00087953A95E1F72091850330918603829FA3
:1026D0008001839F100D929F100D1124C091A003C3
:1026E000D091A10380919E0390919F030C0F1D1F19
:1026F000009709F48FC02091A20331E03093D702F4
:102700002093D6021092D5021092D402DC01ED91F2
:10271000FC910190F081E02D60E40995EE24E394B2
:10272000F12CDD24D39480919E0390919F030C178C
:102730001D0709F446C0B0E2EB16F104D8F00E9480
:10274000261180919E0390919F032091A203D09225
:10275000D7022093D6021092D5021092D402DC0147
:10276000ED91FC910190F081E02D60E40995EE245B
:10277000E394F12C80919E0390919F036991DC0179
:10278000ED91FC910190F081E02D0995BFEFEB1ADE
:10279000FB0AC9CF80919C0390919D03892B31F056
:1027A0008091BF039091C0030E94300AE091B00372
:1027B000F091B10390818091B50380958923808346
:1027C00069CF0E94261180919E0390919F03892BCF
:1027D00009F461C02091BA033091BB034091BC035E
:1027E0005091BD0360E074E284EF90E00E946B289A
:1027F000205131094109510956954795379527953B
:102800002093B800DF91CF911F910F91FF90EF902F
:10281000DF900895E091AE03F091AF038081909135
:10282000B403892B80830C171D0769F289912091CD
:102830009C0330919D03232B19F00E94290AF3CFAA
:1028400028E030E040E8E091AA03F091AB039091DA
:10285000B203582F5423D9F05081952B9083E091E7
:10286000AC03F091AD0390815091B303952B90830D
:10287000E091AC03F091AD0350819091B30390953A
:1028800095239083469521503109E9F6CCCF5081AC
:1028900090959523E3CFE091B003F091B10380814F
:1028A0009091B503892B8083ADCF1F93CF93DF9396
:1028B000EC01162F8D8D9E8D892BB1F12DA93EA98E
:1028C0004FA958AD60E074E284EF90E00E946B285D
:1028D000205131094109510956954795379527955A
:1028E0002093B80066EA111167EACE010E94C21275
:1028F0008D8D9E8D892B41F129AD3AAD4BAD5CADEF
:1029000060E074E284EF90E00E946B28205131096E
:102910004109510956954795379527952093B80059
:10292000DF91CF911F9108958B8D9C8D892B21F084
:102930008EAD9FAD0E94300AEFA5F8A990818CA9B9
:10294000809589238083CECFEFA5F8A980819CA9AB
:10295000892B8083E5CF90E080E008952091870364
:1029600030918803C901079697FD079623E0959556
:1029700087952A95E1F72091850330918603829F00
:10298000A001839F500D929F500D112470E060E0D4
:102990008091A0039091A1030C94C6294F925F925D
:1029A0006F927F928F929F92AF92BF92CF92DF925F
:1029B000EF92FF92CF93DF93CDB7DEB72C970FB690
:1029C000F894DEBF0FBECDBF0E941F2626E631EA77
:1029D00045E15AE40E94CA2425E535E545E95EE370
:1029E0000E94CA2420E03DEA4EE057E40E943C25C4
:1029F0006B017C01AC019B010E947C2769837A8377
:102A00008B839C832DE03FE94CE057E4C701B6017E
:102A10000E947C272AEB33EC42EB53E40E94CB2448
:102A20004B015C0126E139E743E259E369817A8190
:102A30008B819C810E947C279B01AC01C501B40164
:102A40000E94CA244B015C0129E539ED40E055E3C1
:102A5000C701B6010E947C2729813A814B815C81A4
:102A60000E947C279B01AC01C501B4010E94CA24CD
:102A70002B013C0125E33AEF4EE85CE30E947C2702
:102A80000E94E9276D837E838F83988725E33AEF41
:102A90004EE05DE3C301B2010E947C270E94E9275A
:102AA00069877A878B879C872DEE37ED4DE95BE34D
:102AB000C701B6010E947C279B01AC016DE971E161
:102AC00085EF9FE30E94CA244B015C012BE831EEA5
:102AD0004AE657E369817A818B819C810E947C2739
:102AE0009B01AC01C501B4010E94CA242D813E8125
:102AF0004F8158850E947C274B015C0126EF3FECFB
:102B000043ED58E3C701B6010E947C279B01AC014D
:102B10006CE578EC83EA9CE30E94CA2429853A8517
:102B20004B855C850E947C279B01AC01C501B401EB
:102B30000E94CB244B015C0120E537E746E55DE3CD
:102B4000C301B2010E947C270E94E9272B013C01AE
:102B500025EC30EA4CE057E4C701B6010E947C271F
:102B600025EB3BE34CE853E40E94CB246B017C0152
:102B700021ED36EF4EE959E369817A818B819C81A1
:102B80000E947C279B01AC01C701B6010E94CB24A7
:102B90006B017C0124E23BE048E959E3C301B20147
:102BA0000E947C27A50194010E94CB249B01AC01CB
:102BB000C701B6010E94CB2425E33AEF4EE85CE35F
:102BC0000E947C276B017C012BED3FE049EC50E437
:102BD0000E943C250E949A262BED3FE049EC50E4F0
:102BE0000E947C279B01AC01C701B6010E94CA2448
:102BF0002BED3FE049E450E40E943C2520E030E02A
:102C000040EC50E40E947C270E949A260E94EA250C
:102C10002C960FB6F894DEBF0FBECDBFDF91CF91DB
:102C2000FF90EF90DF90CF90BF90AF909F908F90EC
:102C30007F906F905F904F9008954F925F926F9248
:102C40007F928F929F92AF92BF92CF92DF92EF923C
:102C5000FF92CF93DF93CDB7DEB7A0970FB6F8946E
:102C6000DEBF0FBECDBF0E941F266B017C0123E398
:102C70003BE94AE954E40E943C2569837A838B83CB
:102C80009C839B01AC010E947C2769877A878B8794
:102C90009C879B01AC0169817A818B819C810E9418
:102CA0007C27698B7A8B8B8B9C8B25EA3EE34CEEE1
:102CB00051E4C701B6010E947C2723EB36E643E1CD
:102CC0005AE40E94CB244B015C0125E63BE047EF30
:102CD00058E369857A858B859C850E947C279B01BA
:102CE000AC01C501B4010E94CB244B015C0123E17E
:102CF0003EE646E254E369897A898B899C890E9481
:102D00007C279B01AC01C501B4010E94CA244B0180
:102D10005C0128EB3EED44E053E469817A818B81CC
:102D20009C810E947C272CE53FE846E253E40E9408
:102D3000CB242B013C012AE53AE446E15CE36985BA
:102D40007A858B859C850E947C279B01AC01C30101
:102D5000B2010E94CA2425E33AEF4EE85CE30E94E8
:102D60007C270E94E9272AED33E04DEA59E30E94CF
:102D70007C27A50194010E94CB24698F7A8F8B8FC9
:102D80009C8F25EC37ED48EE51E4C701B6010E9457
:102D90007C2723EB3CE943EB53E40E94CB244B011B
:102DA0005C012AE93BEA4BE058E369857A858B852B
:102DB0009C850E947C279B01AC01C501B4010E9447
:102DC000CA244B015C0125E23EED48E656E36989E1
:102DD0007A898B899C890E947C279B01AC01C50163
:102DE000B4010E94CA246D877E878F87988B21E962
:102DF00038EE40EC53E4C701B6010E947C272DE376
:102E000033E049E953E40E94CB244B015C0126E600
:102E10003FEC4FE25CE369857A858B859C850E9457
:102E20007C279B01AC01C501B4010E94CB244B015E
:102E30005C012CEC3DE54FE457E369897A898B8985
:102E40009C890E947C279B01AC01C501B4010E94B2
:102E5000CB246D837E838F83988723ED35E543EC08
:102E600053E4C701B6010E947C2727E03FE54AEA08
:102E700051E40E94CB246B017C0124EC32EA48ED42
:102E80005AE369857A858B859C850E947C279B0106
:102E9000AC01C701B6010E94CA246B017C0123EE7C
:102EA00033E640E256E369897A898B899C890E94DE
:102EB0007C279B01AC01C701B6010E94CA246D8B1F
:102EC0007E8B8F8B988F25E33AEF4EE85CE36D8520
:102ED0007E858F8598890E947C270E94E9274B0177
:102EE0005C0125E33AEF4EE05DE36D857E858F85DD
:102EF00098890E947C270E94E9272B013C0125E349
:102F00003AEF4EE85CE36D817E818F8198850E9467
:102F10007C270E94E9276B017C0121E93BE04EEC14
:102F200059E369817A818B819C810E947C279B0176
:102F3000AC0165EC7FE881E39EE30E94CA24A50111
:102F400094010E947C274B015C0127E230EA49E0B2
:102F50005BE3C301B2010E947C279B01AC01C50168
:102F6000B4010E94CB244B015C0127E138E440ED21
:102F70005EE3C701B6010E947C279B01AC01C5013D
:102F8000B4010E94CA246B017C0125E33AEF4EE0B4
:102F90005DE36D817E818F8198850E947C270E94F0
:102FA000E92726E234EE43E85CE30E947C27A70190
:102FB00096010E94CB244B015C0120E537E746E5F2
:102FC0005DE36D817E818F8198850E947C270E94C0
:102FD000E9272B013C0125E33AEF4EE05DE36D89E3
:102FE0007E898F89988D0E947C270E94E9276B013A
:102FF0007C0127E137EB41ED59E3C301B2010E94A7
:103000007C279B01AC01C501B4010E94CA244B017D
:103010005C0123EC34E64AE25CE3C701B6010E949E
:103020007C279B01AC01C501B4010E94CB244B015C
:103030005C012D813E814F8158856D857E858F8510
:1030400098890E94CB2425E33AEF4EE85CE30E9486
:103050007C270E94E9272B013C012D813E814F8175
:1030600058856D857E858F8598890E94CA2425E3C1
:103070003AEF4EE85CE30E947C270E94E9276B014F
:103080007C0127EE3DE147EA5BE3C301B2010E9408
:103090007C279B01AC01C501B4010E94CA244B01ED
:1030A0005C0123EB3BE742EF5BE3C701B6010E9403
:1030B0007C279B01AC01C501B4010E94CA246D8F1D
:1030C0007E8F8F8F98A32D893E894F89588DCA0195
:1030D000B9010E94CB246B017C01AC019B016D8581
:1030E0007E858F8598890E94CB2425E33AEF4EE8B0
:1030F0005CE30E947C270E94E9272B013C012D857F
:103100003E854F855889C701B6010E94CA2425E330
:103110003AEF4EE85CE30E947C270E94E9274B01CE
:103120005C0127E137EB41ED59E3C301B2010E9495
:103130007C272D8D3E8D4F8D58A10E94CB242B01D5
:103140003C0127E137EB41ED59E3C501B4010E9491
:103150007C279B01AC01C301B2010E94CA244B0130
:103160005C01A70196016D817E818F8198850E9407
:10317000CB2425E33AEF4EE85CE30E947C270E94D3
:10318000E9272B013C012D813E814F815885C701E4
:10319000B6010E94CA2425E33AEF4EE85CE30E94A0
:1031A0007C270E94E9276B017C0122E539E44DE18F
:1031B0005AE3C301B2010E947C279B01AC01C50107
:1031C000B4010E94CA244B015C012FE632E143E8BE
:1031D0005AE3C701B6010E947C279B01AC01C501DF
:1031E000B4010E94CB246B017C012D813E814F8173
:1031F0005885CA01B9010E94CB242D853E854F8593
:1032000058890E94CB2425E33AEF4EE85CE30E9404
:103210007C270E94E9272FE632E143E05AE30E942F
:103220007C27A70196010E94CB246B017C0120E042
:1032300030E040E351EC69817A818B819C810E946E
:10324000372587FF7FC026E530EF4BE55AE36981DC
:103250007A818B819C810E947C272FE632E143E8B2
:103260005AE30E94CB244B015C0122E435E14DE698
:1032700059E369857A858B859C850E947C279B0113
:10328000AC01C501B4010E94CB244B015C0129E7CC
:1032900034EC4DE057E369897A898B899C890E94D7
:1032A0007C279B01AC01C501B4010E94CA244B01DB
:1032B0005C0129E332EF4DEA53E369817A818B8126
:1032C0009C810E947C2729893A894B895C890E94CC
:1032D0007C279B01AC01C501B4010E94CA244B01AB
:1032E0005C01A7019601698D7A8D8B8D9C8D0E9462
:1032F000CB24A50194010E94CA2420E030E040E0E4
:103300005FE30E94CB2425E535E545E95EE30E94B5
:10331000CB240E949A260E94EA25A0960FB6F89424
:10332000DEBF0FBECDBFDF91CF91FF90EF90DF905A
:10333000CF90BF90AF909F908F907F906F905F9055
:103340004F90089523EB3FEE4AE859E369817A8173
:103350008B819C810E947C2727E830EC41E959E36E
:103360000E94CA244B015C012BE03DE549E859E38A
:1033700069857A858B859C850E947C279B01AC01A1
:10338000C501B4010E94CB24AACF0E94C129FB0130
:1033900001900020E9F73197AF01461B570BDC0184
:1033A000ED91FC910280F381E02D0994CF92DF92A0
:1033B000EF92FF920F931F93CF93DF93CDB7DEB7BA
:1033C000A1970FB6F894DEBF0FBECDBF9B01AC0135
:1033D00019A28E010F5D1F4F8AE0C82ED12CE12C5F
:1033E000F12CCA01B901A70196010E946B28605D0A
:1033F000F80162938F01211531054105510589F7C7
:103400003097E9F0BF0181E893E00E94C7198C0171
:103410006EE771E081E893E00E94C719800F911F69
:10342000A1960FB6F894DEBF0FBECDBFDF91CF914E
:103430001F910F91FF90EF90DF90CF90089510E0D3
:1034400000E0E6CFCF93DF93D0E0C0E0009731F00B
:10345000BC0181E893E00E94C719EC016EE771E0BE
:1034600081E893E00E94C7198C0F9D1FDF91CF91D7
:10347000089585ED8093BC008091250290912602ED
:10348000A0912702B09128020796A11DB11D23E04B
:10349000B695A795979587952A95D1F72091BC0069
:1034A00024FD03C010926E020895409125025091B0
:1034B00026026091270270912802452B462B472B4C
:1034C00069F30097A105B10541F02AE22A95F1F7C9
:1034D00000C00197A109B109E1CF809124020C94A9
:1034E0008010EF92FF920F931F93CF93DF938C0185
:1034F000EB01FC0101900020E9F73197E81BF90B83
:10350000DB010D900020E9F71197CD01861B970B89
:103510008E0F9F1F02960E949C287C01B8010E947A
:10352000D82966EB71E0C7010E94CD29BE01C70111
:103530000E94CD29C701DF91CF911F910F91FF907C
:10354000EF9008951F920F920FB60F9211242F93B0
:103550003F938F939F93AF93BF938091CC029091B1
:10356000CD02A091CE02B091CF023091CB0223E0E8
:10357000230F2D3758F50196A11DB11D2093CB02C5
:103580008093CC029093CD02A093CE02B093CF0251
:103590008091D0029091D102A091D202B091D30239
:1035A0000196A11DB11D8093D0029093D102A093EA
:1035B000D202B093D302BF91AF919F918F913F916F
:1035C0002F910F900FBE0F901F90189526E8230F94
:1035D0000296A11DB11DD2CF1F920F920FB60F926E
:1035E00011242F933F934F935F936F937F938F9308
:1035F0009F93AF93BF93EF93FF9388ED92E00E9468
:103600005D06FF91EF91BF91AF919F918F917F9157
:103610006F915F914F913F912F910F900FBE0F903F
:103620001F9018951F920F920FB60F9211242F938F
:103630008F939F93EF93FF93E091E802F091E9025B
:103640008081E091EE02F091EF0282FD1BC090813B
:103650008091F1028F5F8F732091F202821741F007
:10366000E091F102F0E0E852FD4F958F8093F10276
:10367000FF91EF919F918F912F910F900FBE0F901F
:103680001F9018958081F4CF1F920F920FB60F9262
:1036900011242F933F934F935F936F937F938F9357
:1036A0009F93AF93BF93EF93FF938091B900887F6F
:1036B000803609F44AC0F0F5883209F4A7C018F53D
:1036C000803109F49BC0B8F4882309F4F9C088302C
:1036D00009F494C0FF91EF91BF91AF919F918F91A9
:1036E0007F916F915F914F913F912F910F900FBEFE
:1036F0000F901F901895883109F488C0803251F7D7
:1037000080936D0214C0803409F49DC040F480336E
:10371000B9F38833F9F680936D0285ECB0C080353B
:1037200009F485C0883509F496C0883499F60E945A
:10373000391AD0CF883909F48CC038F5883729F088
:1037400050F4883611F0803729F683E080936E02BA
:1037500010926C0257C0883809F47BC0803919F088
:10376000803809F0B7CF80916C02803208F071C0C8
:10377000E0916C0281E08E0F80936C028091BB001F
:10378000F0E0E45BFD4F80833DC0803B39F0E0F426
:10379000803A09F479C0883A09F09CCF84E080939C
:1037A0006E0210924B0210924A02E091A902F0912F
:1037B000AA02099580914A0281110FC081E080938D
:1037C0004A0210922A0209C0803C09F4A6CF883C24
:1037D00009F4A3CF883B09F07DCFE0914B0281E053
:1037E0008E0F80934B02F0E0E65DFD4F8081809369
:1037F000BB0090914B0280914A0229C080919302B4
:103800008093BB0085EC8093BC0064CF90919202C2
:1038100080919102981758F5E091920281E08E0F05
:1038200080939202F0E0EF58FD4F8081E9CFE09164
:10383000920281E08E0F809392028091BB00F0E0B3
:10384000EF58FD4F808390919202809191029817DA
:10385000C8F285E8D8CFE091920281E08E0F809384
:1038600092028091BB00F0E0EF58FD4F8083809181
:10387000700281115CCF81E080936F0284EA8093B3
:10388000BC0010926E0226CF85EC8093BC00109293
:103890006E0280916C02803230F4E0916C02F0E0B4
:1038A000E45BFD4F108260916C0270E0E091A70232
:1038B000F091A8028CE492E0099510926C020ACF74
:1038C00010926D0234CFE8EDF2E01382128248EEDE
:1038D00053E060E070E0448355836683778382E33E
:1038E00091E09183808385EC90E09587848784ECD8
:1038F00090E09787868780EC90E0918B808B81ECBD
:1039000090E0938B828B82EC90E0958B848B86EC9D
:1039100090E0978B868B118E128E138E148EA5E7F6
:10392000B3E013961C921E92129714964D935D93DA
:103930006D937C93179784E491E011969C938E93FA
:10394000E1E8F3E01382128220E830E0358324833B
:1039500080E490E0978386833187208793878287EE
:10396000168A158614861786168681E0858B848BC9
:103970002FEF3FEF338B228B318B208B878B108E79
:10398000128E118E86E591E091838083148E138EC2
:10399000B68FA58F10A2178E8FEF84A385A386A361
:1039A00087A380A780E89AE1A6E0B0E085AB96AB5C
:1039B000A7ABB0AF80EA96E8A1E0B0E081AF92AFEC
:1039C000A3AFB4AF80E586AF17AE0895CF93DF9372
:1039D000CDB7DEB7AC970FB6F894DEBF0FBECDBF44
:1039E000789484B5826084BD84B5816084BD85B5DA
:1039F000826085BD85B5816085BD80916E008160E6
:103A000080936E001092810080918100826080938B
:103A1000810080918100816080938100809180008D
:103A20008160809380008091B10084608093B100B8
:103A30008091B00081608093B00080917A008460B2
:103A400080937A0080917A00826080937A008091DE
:103A50007A00816080937A0080917A0080688093F8
:103A60007A001092C10087E090E0A0E0B0E080937F
:103A7000B5029093B602A093B702B093B80284E067
:103A800090E0A0E0B0E08093B1029093B202A093E6
:103A9000B302B093B40287EE97E0A0E0B0E0809369
:103AA000AD029093AE02A093AF02B093B00265EF67
:103AB00075E080E090E00E941D160E941F266B01B9
:103AC0007C0128E236E246E15AE40E947727181684
:103AD00054F464EF75E080E090E00E941D160E94AF
:103AE0001F266B017C016DEF75E080E090E00E9485
:103AF0001D160E941F264B015C010E94EA250E94B0
:103B0000CE140E941F2620E030E040E151E40E94E4
:103B1000772787FD0AC06CEF75E080E090E00E9497
:103B20001D160E941F264B015C01C501B4010E94B5
:103B3000EA250E941F26162F79878983092FA7015E
:103B400096010E94772787FDF1C161EF75E080E063
:103B500090E00E941D160E941F264B015C010E94EE
:103B6000EA250E94CE140E941F2620E030E040E1AA
:103B700051E40E94772787FD0AC060EF75E080E07E
:103B800090E00E941D160E941F264B015C01C5019A
:103B9000B4010E94EA250E941F26A12EB9849980B3
:103BA000802E162F79878983092F20E030EE4CEF85
:103BB00054E42D8F3E8F4F8F58A3A701960168E2E2
:103BC00076E286E19AE40E94CA2420E030E040E8F0
:103BD0005FE30E94CB2469A77AA78BA79CA7212F1C
:103BE00039854981502FC701B6010E94CA2420E0BF
:103BF00030E048EE51E40E943C250E949A260E9443
:103C0000EA25698F7A8F8B8F9C8F655F7F4F8F4FEF
:103C10009F4F0E941F262B013C01212F398549818E
:103C2000502FB501892D982D0E94CA2420E030E83C
:103C300046EB53E40E94772718160CF0BAC0612FA8
:103C400079858981902F0E94AE250E94192624EB48
:103C500036E643E15AE40E94CA2425EA3EE34CEEEC
:103C600051E40E943C2520E030E040E05FE30E9408
:103C7000CB240E949A260E94EA2569A37AA38BA3EB
:103C80009CA36F5F7F4F8F4F9F4F0E941F260E9404
:103C9000EA250E941D160E941F260E94EA250E9406
:103CA000CE147B018C0120E030E0A9016983FA8207
:103CB0008B831C832D833E834F83588701E010E064
:103CC00020E030E00D8B1E8B2F8B388F2D893E89A5
:103CD0004F89588D2F5F3F4F4F4F5F4F2DA33EA30E
:103CE0004FA358A769A17AA18BA19CA1620F731F52
:103CF000841F951F0E941F260E94EA250E941D1600
:103D00000E941F260E94EA250E94CE147B018C018E
:103D100020E030E0A9016987FA868B871C872D8710
:103D20003E874F87588B9B01AC0160E070E080E0DC
:103D300090E0A980BA80CB80DC80ED80FE800F818E
:103D400018850E948D28F1F029833A834B835C8388
:103D50001D821E821F8218868DA19EA1AFA1B8A5CB
:103D60008D8B9E8BAF8BB88F0E97A105B10509F097
:103D7000ADCF1DE0E12EF12C00E010E0ED8AFE8ACF
:103D80000F8B188F0D891E892F89388D898D9A8DFB
:103D9000AB8DBC8D80179107A207B30750F0BC0113
:103DA000CD01665F7F4F8F4F9F4F0E941F262B01D3
:103DB0003C0120E030E040E451E4C301B2010E9444
:103DC0007727181654F420E030E040E451E4C301B2
:103DD000B2010E94CA242B013C0120E030E040E304
:103DE00051E4C301B2010E94772787FD17C0098DF6
:103DF0001A8D2B8D3C8D043011052105310570F491
:103E000020E030E040E85FE36D8D7E8D8F8D98A1DE
:103E10000E94CA246D8F7E8F8F8F98A369A57AA583
:103E20008BA59CA50E94EA2569837A838B839C835A
:103E300060939402709395028093960290939702F8
:103E4000C301B2010E94EA256B017C01C092980275
:103E5000D0929902E0929A02F0929B026D8D7E8D33
:103E60008F8D98A10E94EA254B015C0180929C02F3
:103E700090929D02A0929E02B0929F0229813A8167
:103E80004B815C812093BB023093BC024093BD0206
:103E90005093BE02C092C102D092C202E092C3020D
:103EA000F092C4028092C7029092C802A092C90206
:103EB000B092CA0269E871E08DE891E00E94711A3F
:103EC0008C01C501B4012AE030E040E050E00E94DE
:103ED0006B28643071058105910508F05BC06A5F4D
:103EE0007F4F8F4F9F4F693071058105910509F410
:103EF00060C0660F771F645E7E4FDB010D90BC9142
:103F0000A02DBA83A983C501B4012CE330E040E0C1
:103F100050E00E946B286C3071058105910508F412
:103F20004DC06C50710981099109F5CF6AE076E0C6
:103F300080E090E00E941D160E941F264B015C014C
:103F40000E94EA250E94CE140E941F2620E030E045
:103F500040E151E40E94772787FD0AC069E076E0DE
:103F600080E090E00E941D160E941F264B015C011C
:103F7000C501B4010E94EA250E941F265B01982E0C
:103F8000892E80E090E0ADEFB4E48D8F9E8FAF8FEF
:103F9000B8A313CE6450710981099109660F771F88
:103FA000645E7E4FFB010190F081E02DFA83E9838E
:103FB000AACF21E831E03A832983A5CF6430710587
:103FC0008105910508F00BC1685F7F4F8F4F9F4FB0
:103FD00055E8A52E51E0B52E6B3071058105910590
:103FE00039F0660F771F6A5F7E4FDB01AD90BC90A2
:103FF00029813A8141E02039340719F025593140AF
:1040000081F4C701B6016F5F7F4F8F4F9F4F2AE04A
:1040100030E040E050E00E946B28698B7A8B8B8BFC
:104020009C8B89819A81A1E08D389A0719F0885973
:10403000914081F4C701B6016D5F7F4F8F4F9F4F55
:104040002AE030E040E050E00E946B28698B7A8BD8
:104050008B8B9C8BE981FA8121E0ED39F20719F015
:10406000E25AF14081F4C701B6016B5F7F4F8F4F79
:104070009F4F2AE030E040E050E00E946B28698BBF
:104080007A8B8B8B9C8B49815A8181E0463A580709
:1040900019F04B5A514081F4C701B601695F7F4F57
:1040A0008F4F9F4F2AE030E040E050E00E946B28A5
:1040B000698B7A8B8B8B9C8BA981BA81E1E0A03BC9
:1040C000BE0719F0A158B14081F4C701B601675F7E
:1040D0007F4F8F4F9F4F2AE030E040E050E00E943A
:1040E0006B28698B7A8B8B8B9C8B29893A894B89BE
:1040F0005C8981E891E0293031054105510539F0AD
:10410000F901EE0FFF1FE45EFE4F808191813BE0DD
:10411000C316D104E104F10408F46DC04BE0C41AE5
:10412000D108E108F1085BE0C516D104E104F1040F
:1041300008F06DC0F601EE0FFF1FEA5FFE4F6081D1
:1041400071810E94711A7C01B50189819A810E9456
:10415000711A1093A1020093A002F092A302E092C0
:10416000A2029093A5028093A4021093BA02009336
:10417000B902F092C002E092BF029093C60280930F
:10418000C5028091A0039091A103892B09F442C03C
:104190000E94AE14809187039091880360918503FB
:1041A00070918603813291050CF072C0AC014052CF
:1041B000510957FF02C04F5F5F4F559547956357B1
:1041C000710977FF02C06F5F7F4F75956795F0E2C9
:1041D000EF2EF12C03E710E028EA35E071C06450BF
:1041E000710981099109660F771F6A5F7E4FFB0194
:1041F000A080B180FDCEAFEFCA1ADA0AEA0AFA0A45
:10420000BBE0CB16D104E104F10409F093CF65E8DB
:1042100071E097CF2091870330918803C9010796F9
:1042200097FD079623E0959587952A95E1F72091CC
:10423000850330918603FC01E29FC001E39F900D4E
:10424000F29F900D11240E949C289093A1038093CB
:10425000A003892B09F09CCF08E41AE01A83098394
:10426000E981FA816491662361F088ED92E00E9411
:104270007F0609811A810F5F1F4F1A830983892BDB
:1042800079F76EE771E088ED92E00E94C719FFCFE1
:10429000AC014054510957FF02C04F5F5F4F559525
:1042A00047956255710977FF02C06F5F7F4F759523
:1042B000679510E4E12EF12C02E510E028E837E0E4
:1042C00081E893E00E941A0F82E08093A30380911B
:1042D0009E0390919F03892B09F497C08CE38093F0
:1042E000A2031092AC021092AB021092D50210926F
:1042F000D4020E94621083EA97E09093AA0280930E
:10430000A90284EA97E09093A8028093A702809183
:10431000A90387FD1DC00E94000661E08091A903EA
:104320000E94000761E070E080E090E00E94710769
:1043300060E08091A9030E9400076AE070E080E0DD
:1043400090E00E94710761E08091A9030E9400073C
:1043500080919E0390919F03892B09F410C12091B5
:10436000B6033091B7034091B8035091B90360E0B0
:1043700074E284EF90E00E946B28205131094109DA
:10438000510956954795379527952093B80064E0D5
:1043900084EA95E00E940D1260918703615081E8E4
:1043A00093E00E94C21264E080EA95E00E940D1240
:1043B0008091A30364E1813009F460E181E893E036
:1043C0000E94C21264E08CE995E00E940D128FE811
:1043D0008093BE0380918503909186038038910578
:1043E00009F0E6C08091870390918803803491059D
:1043F00009F0B5C28091A303813009F4D7C08FECD6
:104400008093BE0302E10983E7C08091A7030E9465
:1044100000068091A8030E9400068091A703082E41
:10442000000C990BFC01E658F44FE491F0E0EE0F1C
:10443000FF1FEA59F44F259134913093AF03209335
:10444000AE03FC01E257F44FE491E093B403809192
:10445000A803082E000C990BFC01E658F44FE491D8
:10446000F0E0EE0FFF1FEA59F44FA591B491B0931D
:10447000B103A093B003FC01E257F44FE491E09341
:10448000B5038C91E82BEC9380919C0390919D0354
:10449000892B09F433C0EFB6E982F8948091A60223
:1044A000811124C0E4E8FBE08491E8E9FBE0949109
:1044B000E82FF0E0EE0FFF1FE059F44FA591B49103
:1044C000EC91E92321F461E08AE00E9400078AE090
:1044D0000E9400068CB580618CBD8CB580648CBD5B
:1044E0008DE00E9400068BE00E9400068091A602EB
:1044F0008F5F8093A602F980FFBE09CF8091A5034C
:104500000E9400068091A6030E9400068091A503E8
:10451000082E000C990BFC01E658F44FE491F0E0F2
:10452000EE0FFF1FEA59F44F259134913093AB03FE
:104530002093AA03FC01E257F44FE491E093B20305
:104540008091A603082E000C990BFC01E658F44F4D
:10455000E491F0E0EE0FFF1FEA59F44FA591B491FA
:10456000B093AD03A093AC03FC01E257F44FE49188
:10457000E093B3038C91E095E823EC93C8CE80914F
:104580009C0390919D03892B31F08091BF03909102
:10459000C0030E94300AE091B003F091B103908112
:1045A0008091B503809589238083F1CE8FE928CF50
:1045B0008036910579F48091870390918803409724
:1045C00009F0CDC18091A303813009F4C6C18FEAFF
:1045D0008093BE0312E019836AED81E893E00E94A4
:1045E000C212698181E893E00E94C21261E881E809
:1045F00093E00E94C2126091BE0381E893E00E94A2
:10460000C21269ED81E893E00E94C2128091A30377
:1046100061EF813009F462E281E893E00E94C21206
:1046200066E086E995E00E940D1280919E039091CC
:104630009F03892B09F495C12091BA033091BB03E4
:104640004091BC035091BD0360E074E284EF90E0C0
:104650000E946B282051310941095109569547950F
:10466000379527952093B8000E94241360ED77E0DA
:1046700080E090E00E9471070E94AE140E94241313
:1046800060ED77E080E090E00E94710742E0342E18
:10469000AA24A394B12C222423946DE1C62ED12CFC
:1046A0007FE3472E512CEDE46E2E712CF0E08F2E1F
:1046B000F0E09F2E3092950330929603B0929403CF
:1046C000A0929303B0929203A092910321E130E073
:1046D00030938E0320938D031092900310928F03DA
:1046E00063E081E893E00E94340A6091C702709110
:1046F000C8028091C9029091CA020E94D6192092E4
:10470000950320929603D0928E03C0928D0341E1CF
:1047100050E05093900340938F0363E081E893E06F
:104720000E94340A8091C5029091C6020E94221A0A
:10473000309295033092960381E190E090938E033E
:1047400080938D03AEE1B0E0B0939003A0938F030C
:1047500063E081E893E00E94340A6091C1027091A5
:10476000C2028091C3029091C4020E94D619209285
:1047700095032092960310928E0310928D03E1E22E
:10478000F0E0F0939003E0938F0363E081E893E01F
:104790000E94340A84EB91E00E94221AD0928E0388
:1047A000C0928D038FE2E82EF12CF0929003E092FC
:1047B0008F0363E081E893E00E94340A8091BF0296
:1047C0009091C0020E94221A309295033092960373
:1047D00001E110E010938E0300938D032CE330E091
:1047E0003093900320938F0363E081E893E00E946D
:1047F000340A6091BB027091BC028091BD0290911D
:10480000BE020E94D6192092950320929603109220
:104810008E0310928D035092900340928F0363E0B9
:1048200081E893E00E94340A88EB91E00E94221A0A
:10483000D0928E03C0928D037092900360928F038A
:1048400063E081E893E00E94340A8091B90290917C
:10485000BA020E94221A63E081E893E00E94340ABF
:104860009EE1E92EF12C0EE110E02AED3AE04EE552
:1048700050E062E170E081E893E00E941A0F0E942C
:10488000241364EF71E080E090E00E947107F12C46
:10489000E12C08E210E028E230E04EE550E062E171
:1048A00070E081E893E00E94340E63E081E893E0D9
:1048B0000E94340A2EE1E22EF12C0EE110E022E6F5
:1048C0003AE04EE550E062E170E081E893E00E945A
:1048D0001A0F0E9424136AEF70E080E090E00E94BB
:1048E0007107F12CE12C08E210E028E230E04EE5FF
:1048F00050E062E170E081E893E00E94340E63E0F2
:1049000081E893E00E94340A3EE1E32EF12C0EE1AF
:1049100010E02AED3AE04EE550E062E170E081E817
:1049200093E00E941A0F0E94241364EF71E080E06C
:1049300090E00E94710761E070E080E090E00E94EA
:1049400071078114910409F4B5CE0E94EC06882306
:1049500009F4B0CE0E940000ADCE80E139CE02E075
:1049600052CDE091B003F091B10380819091B503F5
:10497000892B808379CE86E591E0909382038093A2
:1049800081038091A0039091A103009711F00C94F2
:10499000382908955058BB27AA270E94E2240C9476
:1049A00025270E94172738F00E941E2720F039F48F
:1049B0009F3F19F426F40C9404270EF4E095E7FBCE
:1049C0000C94D526E92F0E94362758F3BA176207B0
:1049D00073078407950720F079F4A6F50C947027E7
:1049E0000EF4E0950B2EBA2FA02D0B01B90190010A
:1049F0000C01CA01A0011124FF27591B99F0593F4E
:104A000050F4503E68F11A16F040A22F232F342F95
:104A10004427585FF3CF469537952795A795F040E3
:104A20005395C9F77EF41F16BA0B620B730B840BF8
:104A3000BAF09150A1F0FF0FBB1F661F771F881FB0
:104A4000C2F70EC0BA0F621F731F841F48F4879508
:104A500077956795B795F7959E3F08F0B0CF9395FA
:104A6000880F08F09927EE0F9795879508950E9473
:104A7000B12608F481E008950E9450250C94252762
:104A80000E941E2758F00E94172740F029F45F3F2C
:104A900029F00C94D52651110C9471270C940427FD
:104AA0000E94362768F39923B1F3552391F3951BA0
:104AB000550BBB27AA2762177307840738F09F5F3F
:104AC0005F4F220F331F441FAA1FA9F335D00E2EAC
:104AD0003AF0E0E832D091505040E695001CCAF719
:104AE0002BD0FE2F29D0660F771F881FBB1F2617DC
:104AF00037074807AB07B0E809F0BB0B802DBF01B3
:104B0000FF2793585F4F3AF09E3F510578F00C9481
:104B1000D5260C9471275F3FE4F3983ED4F3869535
:104B200077956795B795F7959F5FC9F7880F911DA2
:104B30009695879597F90895E1E0660F771F881F8E
:104B4000BB1F621773078407BA0720F0621B730B41
:104B5000840BBA0BEE1F88F7E0950895BEE304D0EE
:104B600008F490E80895BFE322273327A9010E94A3
:104B70003E2760F19F5748F1B91740F1BFE3B91BD9
:104B80009927B8503AF4660F771F881F991FB3957D
:104B9000D2F316C0B8504AF0232F342F452F562F8A
:104BA000672F782F8827B850BAF7B85F49F08695F5
:104BB000779567955795479537952795BA95B9F79E
:104BC00016F40E94072788940895889460E070E0A6
:104BD000CB0108950E943E2788F09F5798F0B92F87
:104BE0009927B751B0F0E1F0660F771F881F991F22
:104BF0001AF0BA95C9F714C0B13091F00E9470272D
:104C0000B1E008950C947027672F782F8827B85F3C
:104C100039F0B93FCCF3869577956795B395D9F779
:104C20003EF490958095709561957F4F8F4F9F4F83
:104C3000089597FB16F40E9407270C945D26E894CC
:104C400009C097FB3EF490958095709561957F4FD4
:104C50008F4F9F4F9923A9F0F92F96E9BB27939582
:104C6000F695879577956795B795F111F8CFFAF492
:104C7000BB0F11F460FF1BC06F5F7F4F8F4F9F4FC3
:104C800016C0882311F096E911C0772321F09EE821
:104C9000872F762F05C0662371F096E8862F70E087
:104CA00060E02AF09A95660F771F881FDAF7880F61
:104CB0009695879597F90895E894F92F96EBFF2339
:104CC00081F0121613061406440B9395F6958795FA
:104CD0007795679557954040FF23B9F71BC09927F3
:104CE0000895882351F49850D2F7872B762F652F9B
:104CF000542F432F322F20E0B1F31216130614065F
:104D0000440B88233AF09A95440F551F661F771F6E
:104D1000881FCAF755234AF4440F551F11F460FF4A
:104D200004C06F5F7F4F8F4F9F4F880F9695879579
:104D300097F908950E94582790F09F3748F49111F1
:104D400016F00C94712760E070E080E89FEB089506
:104D500026F41B16611D711D811D0C94DB260C941D
:104D6000F626990F0008550FAA0BE0E8FEEF16167D
:104D70001706E807F907C0F012161306E407F5074F
:104D800098F0621B730B840B950B39F40A2661F0C3
:104D9000232B242B252B21F408950A2609F4A14066
:104DA000A6958FEF811D811D089597F99F6780E873
:104DB00070E060E00895882371F4772321F0985023
:104DC000872B762F07C0662311F499270DC09051C9
:104DD000862B70E060E02AF09A95660F771F881F97
:104DE000DAF7880F9695879597F908959F3F31F0E8
:104DF000915020F4879577956795B795880F911D09
:104E00009695879597F908959FEF80EC0895909572
:104E100080957095609550954095309521953F4FC0
:104E20004F4F5F4F6F4F7F4F8F4F9F4F089500241D
:104E30000A941616170618060906089500240A94FF
:104E400012161306140605060895092E0394000C85
:104E500011F4882352F0BB0F40F4BF2B11F460FF14
:104E600004C06F5F7F4F8F4F9F4F089557FD90583D
:104E7000440F551F59F05F3F71F04795880F97FB1E
:104E8000991F61F09F3F79F08795089512161306D8
:104E90001406551FF2CF4695F1DF08C01616170607
:104EA0001806991FF1CF869571056105089408953C
:104EB0000E943E27A0F0BEE7B91788F4BB279F38B1
:104EC00060F41616B11D672F782F8827985FF7CFEB
:104ED000869577956795B11D93959639C8F3089592
:104EE000E894BB2766277727CB0197F908950E949E
:104EF000B12608F48FEF08950E948F270C94252780
:104F00000E94172738F00E941E2720F0952311F0E9
:104F10000C94D5260C94042711240C9471270E941C
:104F2000362770F3959FC1F3950F50E0551F629F90
:104F3000F001729FBB27F00DB11D639FAA27F00DF2
:104F4000B11DAA1F649F6627B00DA11D661F829F19
:104F50002227B00DA11D621F739FB00DA11D621FFE
:104F6000839FA00D611D221F749F3327A00D611D1B
:104F7000231F849F600D211D822F762F6A2F1124FD
:104F80009F5750409AF0F1F088234AF0EE0FFF1F30
:104F9000BB1F661F771F881F91505040A9F79E3F87
:104FA000510580F00C94D5260C9471275F3FE4F3F3
:104FB000983ED4F3869577956795B795F795E795DD
:104FC0009F5FC1F7FE2B880F911D9695879597F9E6
:104FD00008959F930E94F3270F9007FCEE5F0C94B7
:104FE0001C280C9404270E943E27D8F3E894E0E0A4
:104FF000BB279F57F0F02AED3FE049EC06C0EE0FCB
:10500000BB0F661F771F881F28F0B23A620773072D
:10501000840728F0B25A620B730B840BE3959A95C0
:1050200072F7803830F49A95BB0F661F771F881F80
:10503000D2F790480C94F826EF93E0FF07C0A2EA5D
:105040002AED3FE049EC5FEB0E94E2240E94252715
:105050000F90039401FC9058E8E6F0E00C9430289F
:105060009F938F937F936F93FF93EF939B01AC017B
:105070000E947C27EF91FF910E9444282F913F913D
:105080004F915F910C947C27DF93CF931F930F93E5
:10509000FF92EF92DF927B018C01689406C0DA2EBA
:1050A000EF010E948F27FE01E894A591259135918B
:1050B00045915591A6F3EF010E94E224FE0197016C
:1050C000A801DA9469F7DF90EF90FF900F911F919C
:1050D000CF91DF910895A1E21A2EAA1BBB1BFD01FF
:1050E0000DC0AA1FBB1FEE1FFF1FA217B307E407C7
:1050F000F50720F0A21BB30BE40BF50B661F771F1F
:10510000881F991F1A9469F76095709580959095FE
:105110009B01AC01BD01CF0108952A153B054C054B
:105120005D056E057F05800791070895EE0FFF1F4F
:105130000590F491E02D09940F931F93CF93DF9383
:105140008230910510F482E090E0E091C303F09189
:10515000C40330E020E0B0E0A0E0309799F42115DE
:10516000310509F44AC0281B390B24303105D8F524
:105170008A819B816115710589F1FB01938382838B
:10518000FE0111C0408151810281138148175907E6
:10519000E0F04817590799F4109761F012960C93B4
:1051A000129713961C933296CF01DF91CF911F91E6
:1051B0000F9108950093C3031093C403F4CF2115F6
:1051C000310551F04217530738F0A901DB019A016C
:1051D000BD01DF01F801C1CFEF01F9CF9093C40306
:1051E0008093C303CDCFFE01E20FF31F8193919310
:1051F0002250310939832883D7CF2091C1033091C0
:10520000C203232B41F4209102013091030130931A
:10521000C2032093C10320910001309101012115A7
:10522000310541F42DB73EB740910401509105017D
:10523000241B350BE091C103F091C203E217F30781
:10524000A0F42E1B3F0B2817390778F0AC014E5FF6
:105250005F4F2417350748F04E0F5F1F5093C2036E
:105260004093C103819391939FCFF0E0E0E09CCF06
:10527000CF93DF930097E9F0FC01329713821282FB
:10528000A091C303B091C403ED0130E020E010977A
:10529000A1F420813181820F931F2091C1033091AD
:1052A000C2032817390709F061C0F093C203E093E5
:1052B000C103DF91CF910895EA01CE17DF07E8F52A
:1052C0004A815B819E0141155105B1F7E901FB83DC
:1052D000EA8349915991C40FD51FEC17FD0761F47A
:1052E000808191810296840F951FE90199838883BB
:1052F000828193819B838A83F0E0E0E012968D9116
:105300009C9113970097B9F52D913C911197CD0180
:105310000296820F931F2091C1033091C203281778
:10532000390739F6309751F51092C4031092C30330
:10533000B093C203A093C103BCCFD383C283408187
:105340005181840F951FC817D90761F44E5F5F4FD5
:1053500088819981480F591F518340838A819B819D
:10536000938382832115310509F0B0CFF093C403F4
:10537000E093C3039ECFFD01DC01C0CF13821282F4
:10538000D7CF81E090E0F8940C94DF29DC0101C0D4
:105390006D9341505040E0F70895FB01DC010D9002
:1053A0000020E9F7119701900D920020E1F7089590
:1053B000FB01DC0101900D920020E1F7089515E05A
:1053C000C5EDD5E004C0FE010E9496282196C63D99
:0853D000D107C9F7F894FFCFE3
:1053D8000000C5038000BB01BE01C201C601CA01AD
:1053E800CF01D2018901D601DB01DF0190018D01D6
:1053F8009D01A601B00195019801A201AB01000031
:1054080000007F06A5072006CC0651062F06430696
:1054180000000000F710CA10AB141F06C310B0102C
:10542800A110000000006E0CA507AB143A10790912
:105438001F06130FEB0E070FFB0E8D0F1F06340A06
:105448005514E9083209340E170E9F0D400D0D0A48
:105458000051757900486F69004D75690041740005
:1054680047696170004B790043616E680042696E5C
:10547800680054616E0044696E68004E68616D0092
:105488004D6175004D3A2000443A00546900537547
:10549800750044616E004D616F005468696E005478
:1054A80079004E676F005468616E0044617500545E
:0454B80075617400A6
:00000001FF
